:020000040800F2
:1000000080090020DD010008C90E0008A10A0008CF
:10001000C50E0008890700083B1C0008000000000E
:1000200000000000000000000000000001110008B6
:10003000A9070008000000003D0F00089512000805
:10004000F7010008F7010008F7010008F7010008B0
:10005000F7010008F7010008F7010008F7010008A0
:10006000F7010008F7010008F7010008F701000890
:10007000F7010008F7010008F7010008F701000880
:10008000F7010008F7010008F7010008F701000870
:10009000F7010008F7010008F7010008F701000860
:1000A000F7010008F7010008F7010008F701000850
:1000B000F70100083915000851150008F70100087C
:1000C000F7010008F7010008F7010008F701000830
:1000D000F701000811190008A9190008311A0008D1
:1000E000F7010008F7010008F7010008F701000810
:1000F000F7010008F7010008F7010008F701000800
:10010000F7010008F7010008F7010008F7010008EF
:10011000F7010008F7010008F7010008F7010008DF
:10012000F7010008F7010008F7010008F7010008CF
:1001300000F002F800F042F80AA090E8000C8244B7
:100140008344AAF10107DA4501D100F037F8AFF294
:10015000090EBAE80F0013F0010F18BFFB1A43F0A5
:10016000010318474028000060280000103A24BF0F
:1001700078C878C1FAD8520724BF30C830C144BF0C
:1001800004680C607047000000230024002500264E
:10019000103A28BF78C1FBD8520728BF30C148BFEA
:1001A0000B607047642900F07180732900F02E8283
:1001B000002070471FB51FBD10B510BD00F0B6FA86
:1001C0001146FFF7F7FF01F0F5FD00F0D4FA03B494
:1001D000FFF7F2FF03BC01F039FD0000094880473A
:1001E00009480047FEE7FEE7FEE7FEE7FEE7FEE719
:1001F000FEE7FEE7FEE7FEE704480549054A064B31
:1002000070470000991200083101000880030020A7
:100210008009002080050020800500207047000034
:100220000FB4044910B503AA029800F0F3F910BC0A
:100230005DF814FB4000002070B50C460546012A0D
:1002400005D02878800600D5EA69002302E0012362
:1002500005E05B1C934202D2E05C0028F9D1A8695A
:10026000E618C01AA861286A184428622846AFF325
:10027000008004E0D5E9012114F8010B9047B44255
:10028000F8D32846AFF3008070BD00002DE9F0419F
:100290000646002410687529314616A510D0AFF324
:1002A0000080002802DA404213A507E031688A077F
:1002B00001D512A502E0490704D511A5012401E0EA
:1002C000AFF3008000210A2206F1240709E0B0FB09
:1002D000F2FCB0FBF2F302FB1C00303078541846FD
:1002E000491C0028F3D123462A463046BDE8F04198
:1002F00000F021B9000000002D0000002B000000DC
:10030000200000002DE9F05F894604464FF0000A06
:10031000DFF824B1FB44C0F820A02046E1688847FC
:1003200000287DD0252806D0D4E901219047206AF5
:10033000401C2062F1E700255F462046E1688847BF
:100340002028064607DB312E05D2B81910F8200CFC
:1003500008B10543F1E7A80701D525F00405C4F865
:100360001CA00027C4F818A02A2E09D0304601F09E
:1003700066FC38B304EB8708303EC8F8186019E013
:1003800059F8041B204604EB87029161E168884715
:10039000012F064618D1E069002820DA25F0200553
:1003A0001DE0D8F8180000EB800006EB4000303864
:1003B000C8F818002046E1688847064601F03FFC6F
:1003C0000028EED1012F0AD02E2E08D12046E16858
:1003D00088477F1C0646022F45F02005C4DBA06934
:1003E000002803DA404245F00105A061E80701D08A
:1003F00025F01005A6B1A6F14100192802D8203633
:1004000045F400654A463146204625604D46FFF7D3
:10041000C9FE60B1012807D0ED1D25F0070000E0FE
:1004200007E000F1080978E705F1040975E73046AF
:100430007AE7206ABDE8F09F7A26000030B50546CD
:100440000B462A4613F8014B12F8010B08B1A042E3
:10045000F8D01CB1002802D06D1CF1E7284630BD51
:10046000032A40F2308010F0030C00F0158011F8E0
:10047000013BBCF1020F624498BF11F801CB00F8B8
:10048000013B38BF11F8013BA2F1040298BF00F80C
:1004900001CB38BF00F8013B11F0030300F0CC8022
:1004A000083AC0F0088051F8043B083A51F804CBF0
:1004B000A0E80810F5E7121D5CBF51F8043B40F8B6
:1004C000043BAFF30080D20724BF11F8013B11F8C1
:1004D00001CB48BF11F8012B24BF00F8013B00F805
:1004E00001CB48BF00F8012B70474FF000020429F0
:1004F000C0F0128010F0030C00F0D280CCF1040C9C
:10050000BCF1020F18BF00F8012BA8BF20F8022B86
:10051000A1EB0C0100F0C4B85FEAC17C24BF00F875
:10052000012B00F8012B48BF00F8012B70477047E2
:100530007047704770472DE9F0470D46994692463F
:10054000044600F124080168880604D5E06921F01A
:100550001001216000E00120A84201DD471B00E0FE
:100560000027A1697A1902EB0900081AA061207816
:10057000C00602D42046AFF30080002608E0D4E98C
:1005800001211AF806009047206A401C761C206260
:100590004E45F4DB2078C0060AD52046AFF3008034
:1005A00006E0D4E9012130209047206A401C2062F7
:1005B000381EA7F10107F4DC07E0D4E9012118F89F
:1005C00005009047206A401C2062281EA5F1010505
:1005D000F3DC2046AFF300802078000602D502202D
:1005E000BDE8F0870120FBE710B5436913B1AFF315
:1005F000008001E0FFF720FE012010BD127800F11D
:1006000024010A7000224A700122EDE711684FF0C0
:10061000FF32E9E7074B70B50D467B4400F06BF8FD
:100620000446284600F07AF810B14FF0FF3070BD54
:10063000204670BD7B17000010B5203AC0F00B803B
:10064000B1E81850203AA0E81850B1E81850A0E8D6
:100650001850BFF4F5AF5FEA027C24BFB1E8185030
:10066000A0E8185044BF18C918C0BDE810405FEAA0
:10067000827C24BF51F8043B40F8043B08BF70471C
:10068000D20728BF31F8023B48BF11F8012B28BF21
:1006900020F8023B48BF00F8012B70474FF00002E2
:1006A00000B5134694469646203922BFA0E80C5068
:1006B000A0E80C50B1F12001BFF4F7AF090728BF43
:1006C000A0E80C5048BF0CC05DF804EB890028BFBF
:1006D00040F8042B08BF704748BF20F8022B11F0E8
:1006E000804F18BF00F8012B7047000001694A1CB9
:1006F00002610878704700B58FB0CDE90131002163
:10070000059105497944CDE9031011466846FFF784
:10071000F9FD0FB000BD0000E5FFFFFF007B00F01A
:1007200080007047004870471C0300207546FFF7A3
:10073000F9FFAE4605006946534620F0070085469E
:1007400018B020B5FFF758FDBDE820404FF0000677
:100750004FF000074FF000084FF0000B21F00701A9
:10076000AC46ACE8C009ACE8C009ACE8C009ACE8EC
:10077000C0098D46704710B50446AFF3008020468F
:10078000BDE81040FFF723BD00BFFEE710B5C8214C
:100790000348FFF7AAFE00200249088010BD0000B0
:1007A000C10000203A0000207047000000B587B06B
:1007B0000121042000F0C4FB0121082000F0D0FB3F
:1007C0000121084600F0CCFBC020ADF80000042059
:1007D0008DF8030069461C4800F08CF804A801F06D
:1007E0008DF80020ADF810004FF6FF70ADF8140042
:1007F0000020ADF81600ADF8120004A9134801F06E
:100800002BF800231A460321104800F0BCFE01A873
:1008100000F030FF0A20ADF80C0001A90B4800F0F1
:10082000D3FE0121094800F09FFE0122114607482E
:1008300000F029FF0021054800F0E0FF01210348F6
:1008400000F095FE07B000BD000C0140000800401C
:1008500000B587B00121022000F072FB01210420C5
:1008600000F07EFB0121084600F07AFBC020ADF8C5
:10087000000004208DF8030069461C4800F03AF897
:1008800004A801F03BF80020ADF810004FF6FF700F
:10089000ADF814000020ADF81600ADF8120004A960
:1008A000134800F0D9FF00231A460321104800F036
:1008B0006AFE01A800F0DEFE0A20ADF80C0001A9D6
:1008C0000B4800F081FE0121094800F04DFE012295
:1008D0001146074800F0D7FE0021054800F08EFFC2
:1008E0000121034800F043FE07B000BD00080140AD
:1008F000000400402DE9F0410246002500260020BA
:1009000000230024002791F803C00CF00F0591F894
:1009100003C00CF0100CBCF1000F03D091F802C022
:100920004CEA050591F800C0BCF1000F31D0146805
:1009300000202BE04FF0010C0CFA00F3B1F800C0DE
:100940000CEA03069E4220D183004FF00F0C0CFAF4
:1009500003F7BC4305FA03FC4CEA040491F803C016
:10096000BCF1280F06D14FF0010C0CFA00FCC2F8C4
:1009700014C00AE091F803C0BCF1480F05D14FF054
:10098000010C0CFA00FCC2F810C0401C0828D1D39E
:100990001460B1F800C0BCF1FF0F34DD54680020D2
:1009A0002EE000F1080C4FF0010808FA0CF3B1F842
:1009B00000C00CEA03069E4221D183004FF00F0CC9
:1009C0000CFA03F7BC4305FA03FC4CEA040491F863
:1009D00003C0BCF1280F05D100F1080C08FA0CF88F
:1009E000C2F8148091F803C0BCF1480F07D100F1A0
:1009F000080C4FF0010808FA0CF8C2F81080401CEF
:100A00000828CED35460BDE8F08141617047016190
:100A1000704700002DE9F05F00F01CFB834617498A
:100A200001F092FE824601F063FE0646144A154B21
:100A300001F060FD80460022134B01F003FC0446E8
:100A400001F0CEFB1149086000F012FB83460B4910
:100A500001F07AFE824601F04BFE0646084A094B39
:100A600001F048FD04460022074B01F0EBFB8046F5
:100A700001F0B6FB06490860BDE8F09F0000C344E2
:100A80001461C3D32BA52B40000059400000002067
:100A90000400002010B501F0A9F901F01BFA10BD07
:100AA00000BFFEE710B500200E4908600E48006840
:100AB00020F470000C4908600846006840F44010BB
:100AC000086000200949C1F8940100F011F80120E4
:100AD0000449086000F00CF800200449C1F89001B6
:100AE00010BD000090012142000801400000214299
:100AF00010B5022001F01CF910BD000008B501215D
:100B0000042000F02DFA3020ADF8000010208DF800
:100B1000030003208DF8020069460448FFF7EAFE4F
:100B200030210248FFF773FF08BD000000080140B4
:100B300010B500200E4908600E48006820F47000CF
:100B40000C4908600846006840F440100860012025
:100B50000949C1F89401FFF7CBFF0120044908605F
:100B6000FFF7C6FF00200449C1F8900110BD000046
:100B700090012142000801400000214270B5054665
:100B800000241648006820F47000144908600846E4
:100B9000006840F400000860002614E000201049BE
:100BA0000860FFF7A5FF01200E49C1F8900160061B
:100BB000040E0B487C38006808B1601CC4B2FFF713
:100BC00097FF701CC6B2082EE8DB15B9FFF7B0FF1F
:100BD00001E0FFF767FF204670BD000000080140FC
:100BE000900121420000214270B50446124800687D
:100BF00020F47000104908600846006840F4401076
:100C0000086000200D490860002512E0E0090B494A
:100C1000091D08606006040E01200949C1F8900111
:100C2000FFF766FF002005490860FFF761FF681CB9
:100C3000C5B2082DEADB70BD0008014090012142D9
:100C40000000214210B50E48006820F470000C49E5
:100C500008600846006840F4401008600120094917
:100C600008600949C1F89001FFF742FF00200549DB
:100C70000860FFF73DFF00200349C1F8900110BD57
:100C800000080140940121420000214210B50E48A5
:100C9000006820F470000C4908600846006840F4C1
:100CA000401008600020094908600949C1F8940112
:100CB000FFF71EFF0120054908600549C1F89401AE
:100CC000FFF716FF10BD000000080140900121420F
:100CD0000000214210B500241448006820F4700080
:100CE000124908600846006840F4000008600120CE
:100CF0000F490860FFF7FCFE01200E49C1F8900182
:100D0000FFF7F6FE07E0601CC4B2FA2C03DDFFF724
:100D1000BDFF012010BD0648803800680028F2D1D0
:100D20000349091F086000BFF4E700000008014004
:100D3000940121420000214210B5FFF7DFFE80211F
:100D40006B2000F09DF8642000F0CCFF00216B20A8
:100D500000F096F8032000F051F8002000F046F86B
:100D6000322000F070F80021382000F089F80021CE
:100D70006A2000F085F80021232000F081F880210E
:100D8000372000F07DF8752000F013F80446682C39
:100D90000BD101216B2000F073F800216C2000F0D2
:100DA0006FF8322000F04FF801E0012010BD002064
:100DB000FCE770B50446FFF745FFD020FFF714FFAE
:100DC000FFF788FF2046FFF70FFFFFF783FFFFF7CE
:100DD00039FFD120FFF708FFFFF77CFF0020FFF766
:100DE000CDFE0546FFF752FF284670BD10B50446FC
:100DF000E006010E1C2000F043F810BD10B50446BB
:100E0000E006010E1B2000F03BF810BD70B5044653
:100E10000025BC2C01DB012510E0622C01DB022542
:100E20000CE02A2C01DB032508E0142C01DB04254F
:100E300004E00A2C01DB052500E0062529461A20DE
:100E400000F01EF870BD70B50446B4F57A7F01DD80
:100E50004FF47A74042C00DA04244FF47A7090FB77
:100E6000F4F0401EC5B22946192000F009F80546E5
:100E7000264604EBD671C1F34F00FFF7C7FF70BDE4
:100E800070B505460C46FFF7DDFED020FFF7ACFE3F
:100E9000FFF720FF18B1FFF7F9FE012070BD2846CB
:100EA000FFF7A2FEFFF716FF2046FFF79DFEFFF7B4
:100EB00011FF18B1FFF7EAFE0120EFE7FFF7E6FEAA
:100EC0000020EBE700BFFEE77047000070B500218F
:100ED00000230F22C47804B3154C246804F4E064A2
:100EE000C4F5E064210AC1F10403CA40447804FA5D
:100EF00003F184781440214309010E4C0678A15572
:100F0000047804F01F050124AC4005786D11AD0094
:100F100005F1E025C5F8004109E0047804F01F055B
:100F20000124AC40044D0678761145F8264070BD8A
:100F30000CED00E000E400E080E100E0704700001C
:100F400029B1064AD2690243044BDA6104E0034A3C
:100F5000D2698243014BDA61704700000010024001
:100F600029B1064A92690243044B9A6104E0034A9C
:100F700092698243014B9A61704700000010024061
:100F800030B500210022002400232D4D6D6805F0AE
:100F90000C0121B1042905D0082923D105E0294DF0
:100FA000056022E0274D05601FE0254D6D6805F4C2
:100FB0007012234D6D6805F48034022505EB9242D2
:100FC0001CB9214D554305600BE01D4D6D6805F4BE
:100FD00000351DB11C4D5543056002E0194D5543C8
:100FE000056002E0174D056000BF00BF144D6D683D
:100FF00005F0F0010909154D6B5C0568DD404560A1
:101000000F4D6D6805F4E061090A104D6B5C456891
:10101000DD4085600A4D6D6805F46051C90A0B4DCD
:101020006B5C4568DD40C560054D6D6805F4404169
:10103000890B074D6B5CC568B5FBF3F5056130BDE9
:101040000010024000127A0000093D00200000203C
:101050003000002010B500240448008804B20020AD
:1010600002490880604201F031FC10BD24040040B8
:1010700010B500240448008804B20020024908800A
:10108000204601F023FC10BD2408004010B516488E
:1010900000880121B1EBD03F24D11448007818B961
:1010A00001201249087006E010480078012802D19A
:1010B00000200E4908700D48007860B90C48C17BCB
:1010C0000CA0FFF7ADF80A48C07B0C490870084631
:1010D000007800F01FFFC8210548FFF706FA00203E
:1010E0000149088010BD00004400002009000020D4
:1010F0008901002025640D0A00000000080000207E
:10110000704710B500F002F810BD00000CB50020CB
:10111000019000903348006840F480303149086005
:1011200000BF3048006800F4003000900198401C77
:101130000190009818B90198B0F5A06FF1D1294835
:10114000006800F4003010B10120009001E00020A0
:1011500000900098012843D12348006840F0100017
:10116000214908600846006820F00300086008462E
:10117000006840F0020008601A4840681949486059
:101180000846406848600846406840F4806048600F
:101190000846406820F47C1048600846406840F4E7
:1011A000E81048600846006840F08070086000BFA2
:1011B0000C48006800F000700028F9D00948406829
:1011C00020F00300074948600846406840F00200EC
:1011D000486000BF0348406800F00C000828F9D1BF
:1011E0000CBD0000001002400020024010B5044673
:1011F0003CB901210848FFF708FC02210648FFF727
:1012000006FC012C07D101210348FFF700FC022155
:101210000148FFF7FAFB10BD0010014010B504466D
:10122000A1B24FF0804000F0E5FA10BD10B50446C1
:101230003CB904210848FFF7E8FB08210648FFF7FE
:10124000E6FB012C07D104210348FFF7E0FB08214E
:101250000148FFF7DAFB10BD0010014010B504464D
:10126000A1B24FF0804000F0C7FA10BD042808D1A9
:101270004FF0E021096941F004014FF0E0221161D3
:1012800007E04FF0E021096921F004014FF0E0226E
:10129000116170477047000010B51348006840F0B6
:1012A00001001149086008464068104908400E498D
:1012B0004860084600680E4908400B490860084627
:1012C000006820F4802008600846406820F4FE0092
:1012D00048604FF41F008860FFF713FF4FF0006075
:1012E0000449086010BD0000001002400000FFF833
:1012F000FFFFF6FE08ED00E0F0B50C4615460022B3
:101300000021068C4FF6FE773E400684028B018C4E
:101310004FF60C7632407E1C06EA03162E4332430B
:10132000104EB0420ED0104EB0420BD0B0F1804FF4
:1013300008D00E4EB04205D00D4EB04202D00D4E38
:10134000B04206D14FF6FD76314044F001063143FC
:1013500005E04FF6F576314044F001063143028353
:101360000184F0BD002C0140003401400004004025
:1013700000080040000C0040F0B50C461546002265
:1013800000210026078C4FF6EF7C07EA0C07078444
:10139000028B018C4FF6FF7707EA041640F6FF47F1
:1013A0003A404FF6FF7707EA03373A434FF6FF77A5
:1013B00007EA05273A43114FB8420ED0104FB84202
:1013C0000BD0B0F1804F08D00E4FB84205D00E4F71
:1013D000B84202D00D4FB84206D14FF6DF77394000
:1013E00046F01007394305E04FF65F77394044F087
:1013F0001007394302830184F0BD0000002C014036
:10140000003401400004004000080040000C00408F
:10141000F0B50C461546002200210026078C4FF639
:10142000FF6C07EA0C070784828B018C4FF6FF776D
:1014300007EA04264FF60C773A404FF6FF7707EAA3
:1014400003172F433A43114FB8420ED0104FB84202
:101450000BD0B0F1804F08D00E4FB84205D00E4FE0
:10146000B84202D00D4FB84206D14FF6FF5739406F
:1014700046F48077394305E04FF2FF57394044F492
:101480008077394382830184F0BD0000002C014045
:10149000003401400004004000080040000C0040FF
:1014A000F0B50C461546002200210026078C4EF6AA
:1014B000FF7C07EA0C070784828B018C4FF6FF77CD
:1014C00007EA043640F6FF473A404FF6FF7707EA4F
:1014D00005273A434FF6FF7707EA03373A43114FA0
:1014E000B8420ED0104FB8420BD0B0F1804F08D0A8
:1014F0000E4FB84205D00E4FB84202D00D4FB84241
:1015000006D14DF6FF77394046F48057394305E060
:1015100047F6FF57394044F48057394382830184AA
:10152000F0BD0000002C01400034014000040040E8
:1015300000080040000C0040044800880348008870
:1015400020F00100014908807047000010040040AD
:10155000044800880348008820F001000149088001
:101560007047000010080040CA430282704721B152
:10157000028842F00102028004E002884FF6FE7306
:101580001A4002807047F0B50C4615461E460021F1
:10159000002200230189028B038C4FF6F877394033
:1015A00021434FF6FC473A4040F201173A434FF6C9
:1015B000DD773B404FF6FF7707EA06172F433B43A3
:1015C000018102830384F0BD70B505460C462448B2
:1015D00085420ED0234885420BD0B5F1804F08D00C
:1015E0002148854205D02148854202D020488542C5
:1015F00000D100E000BF208850B92389A28861880B
:101600002846FFF779FEE188284600F0F9F825E042
:10161000208804280AD12389A28861882846FFF7F8
:10162000ABFEE188284600F0F4F817E0208808288F
:101630000AD12389A28861882846FFF7E9FEE1885C
:10164000284600F0F3F809E02389A288618828463B
:10165000FFF726FFE188284600F0F1F870BD000092
:10166000002C01400034014000040040000800400C
:10167000000C004000210180418001218180002177
:10168000C180018170471AB183890B43838102E0D5
:1016900083898B438381704701894FF6F87211402B
:1016A0000181704770B5002400220023058C4FF69D
:1016B000FE7635400584028C8388048B4FF68F7547
:1016C0002C40B51E2C400D882C43751E2A400D89D8
:1016D0002A434D882A43144DA8420BD0134DA842EB
:1016E00008D0134DA84205D0124DA84202D0124D89
:1016F000A84213D14FF6F7752A404D892A434FF679
:10170000FB752A408D882A434FF6FF652B404FF624
:10171000FF552B408D892B43CD892B438380048338
:10172000CD888586028470BD002C014000340140C4
:1017300000400140004401400048014070B50024D1
:1017400000220023058C4FF6EF7635400584028C8D
:101750008388048B48F6FF752C404FF6FF452C40DC
:101760000D884FF6FF7606EA05252C434FF6DF7508
:101770002A400D8906EA05152A434D8806EA051513
:101780002A43154DA84202D0144DA8421DD14FF650
:101790007F752A404D894FF6FF7606EA05152A43E4
:1017A0004FF6BF752A408D8806EA05152A434FF685
:1017B000FF352B404FF2FF752B408D8906EA8505DA
:1017C0002B43CD8906EA85052B4383800483CD888E
:1017D0000587028470BD0000002C014000340140E8
:1017E0000021018041808180C1800181418181810E
:1017F000C181704781867047018770478184704737
:10180000028B4FF6F3731A400283028B0A43028362
:101810007047028B4FF2FF331A400283028B4FF660
:10182000FF7303EA01231A4302837047828B4FF64A
:10183000F3731A408283828B0A4382837047828BC0
:101840004FF2FF331A408283828B4FF6FF7303EA15
:1018500001231A4382837047002202881D4B98425D
:101860000ED01D4B98420BD0B0F1804F08D01B4BCF
:10187000984205D01A4B984202D01A4B984204D194
:101880004FF68F731A404B881A43174B984207D074
:10189000164B984204D04FF6FF431A40CB881A43A8
:1018A00002808B8883850B8803850A4B98420BD076
:1018B000094B984208D00E4B984205D00D4B9842E8
:1018C00002D00D4B984201D10B7A0386012383820B
:1018D00070470000002C014000340140000400402B
:1018E00000080040000C00400010004000140040C0
:1018F0000040014000440140004801404FF6FF71A4
:10190000818000210180C180418001727047000008
:1019100010B540F22551204800F0CEF8002839D00B
:101920001D4800F085F9C4B2242C02D100201B49C7
:1019300008801A4801880088401C184A10801848FE
:101940004454007824281ED1154800794D281AD116
:1019500013484079432816D10A2C14D1502111483C
:10196000FEF7C3FD0D4802880D490E48FEF778FDCD
:1019700001200C4981F85000002008490880C82146
:101980000748FEF7B2FD05480088C82802DBC820DA
:101990000249088010BD0000003801403A000020D4
:1019A000C10000204800002010B540F225511D481C
:1019B00000F082F810B31B4800F03AF9C4B21A489C
:1019C000008800F40040C8B91748008800F480403F
:1019D00060B10A2C03D000201349088020E012488F
:1019E000008840F400401049088019E00D2C06D111
:1019F0000D48008840F480400B49088010E00A48F8
:101A00000088C0F30D0009490C5407480088401CA9
:101A10000549088008460088C72801DD00200880A5
:101A200010BD000000440040440000208901002057
:101A300010B540F22551164800F03EF8F8B11448B0
:101A400000F0F6F8C4B21348008800F40040B0B9C2
:101A500010480088C82813DA00210F48FFF7CEFE8F
:101A60000C48008818B901210B48FFF780FD094890
:101A700001880088401C074A10800848445405E04B
:101A80000448008840F400400249088010BD00006E
:101A900000480040460000200004004051020020A1
:101AA00021B1828942F40052828104E082894DF69C
:101AB000FF731A408281704770B5024600240023EC
:101AC0000025002040F66A16B14200D100BFC1F3E4
:101AD000421501F01F03012606FA03F3012D02D17E
:101AE0009689334006E0022D02D1168A334001E088
:101AF000968A33400C12012606FA04F41688344004
:101B000013B10CB1012000E0002070BDF0B5034618
:101B1000002400260025002040F66A17B94200D1B3
:101B200000BF1846C1F3421401F01F06012707FA4F
:101B300006F5012C01D10C3004E0022C01D110304B
:101B400000E014301AB107682F43076002E007680D
:101B5000AF430760F0BD00002DE9F04786B00546B1
:101B60000E460024A24600BFA1460027B08900B15E
:101B700000BF2F462C8A4CF6FF700440F0880443C7
:101B80002C82AC894EF6F3100440B08831890843AA
:101B9000718908430443AC81AC8A4FF6FF4004408E
:101BA000B0890443AC8201A8FFF7EAF91F488742D5
:101BB00002D1DDF810A001E0DDF80CA0A88900F446
:101BC000004040B10AEBCA0000EB0A10316849003E
:101BD000B0FBF1F807E00AEBCA0000EB0A1031682D
:101BE0008900B0FBF1F86420B8FBF0F00401200993
:101BF000642101FB1089A88900F4004040B1322023
:101C000000EBC900B0FBF1F000F00700044308E06E
:101C1000322000EB09106421B0FBF1F000F00F005E
:101C200004432C8106B0BDE8F08700000038014075
:101C300001468888C0F30800704700BFFEE73038CF
:101C40000A2801D20120704700207047014600BFDA
:101C50007047000010B50020104981F8500081F84D
:101C6000510081F8780050210C48FEF73EFC0B48EB
:101C70005230002101604160018181720B300160AE
:101C80004160018181725D38A0F868106A3001609E
:101C9000416081606A38A0F8761010BD48000020CD
:101CA00010B56FF00400FFF7E1FA0A4800680A492E
:101CB000B0FBF1F0094908700846007800EB4001DC
:101CC000C1EBC0104FF6FF7101EAC0000449088063
:101CD00010BD00000C00002000127A00340000202B
:101CE000360000200146114A12884A434FF0E02393
:101CF0005A6100229A611A46126942F001021A6181
:101D000000BF4FF0E022106900F001021AB100F4A8
:101D10008032002AF5D04FF0E022126922F0010251
:101D20004FF0E0231A6100229A61704736000020CC
:101D30000146114A12784A434FF0E0235A610022CB
:101D40009A611A46126942F001021A6100BF4FF00F
:101D5000E022106900F001021AB100F48032002A7A
:101D6000F5D04FF0E022126922F001024FF0E0239B
:101D70001A6100229A61704734000020044603E093
:101D8000214602A0FEF74CFAFAE700004552524FF6
:101D90005225640D0A00000000BF054A128802F0B7
:101DA0004002002AF9D0C2B2014B1B1D1A807047B5
:101DB00000440040FFF774FF4FF4165000F0BEF9E6
:101DC0004FF4165000F068F900F0F4F8FEF7EEFC5E
:101DD000FEF73EFDFEF7B0FFFFF73CFF05E0FFF723
:101DE00055F9FEF717FEFEF755FEF8E7F8B50026A1
:101DF000364890F85000002866D00020334981F81A
:101E0000500000BF5EE046B931A13048FEF716FB36
:101E1000041E55D10120FFF7B1FF641C2CA1204600
:101E2000FEF70CFB051E48D0072E2ED2DFE806F089
:101E30002D040B11181F26002A1B2146234852305F
:101E4000FEF70EFB22E02A1B21466846FEF708FB40
:101E50001CE02A1B21461D485D30FEF701FB15E002
:101E60002A1B214619486830FEF7FAFA0EE02A1BB1
:101E7000214616486A30FEF7F3FA07E02A1B21468E
:101E800012487630FEF7ECFA00E000BF00BF2C46A7
:101E900001200E4981F851009DF80000412803D12E
:101EA000012081F8780007E09DF80000562803D152
:101EB0000020064981F8780002E00220FFF75EFF6B
:101EC000701CC6B2062E9EDDF8BD00004800002042
:101ED0002C00000010B50B4890F8510088B109485B
:101EE00090F8780068B10020064981F8510081F827
:101EF000780001F16A0301F15D02523102A0FEF7A0
:101F00008FF910BD4800002025730D25730D257332
:101F10000D0A000010B50446302C0DD10020FFF74B
:101F200065F90020FFF782F94FF4AF70FFF776F9FB
:101F30004FF4C870FFF792F9312C0DD10120FFF753
:101F400055F90120FFF772F94FF4AF70FFF766F90A
:101F50004FF4C870FFF782F9322C0CD10120FFF743
:101F600045F90020FFF762F94FF4AF70FFF756F91B
:101F7000E000FFF773F9332C0DD10020FFF736F99D
:101F80000120FFF753F94FF4AF70FFF747F94FF413
:101F9000C870FFF763F9342C0BD10020FFF726F946
:101FA0000120FFF743F90020FFF738F90020FFF781
:101FB00055F910BD00B589B001210846FEF7C0FFF4
:101FC00001210420FEF7CCFF18208DF82300032008
:101FD0008DF82200ADF8200008A92D48FEF78AFCF4
:101FE0004FF08040FFF758FB0020ADF81A00ADF825
:101FF000160040F2E730ADF8180040F29F50ADF8FF
:10200000140000208DF81C0005A94FF08040FFF758
:1020100023FC01A8FFF7E4FB6020ADF804000020DA
:10202000ADF80C000120ADF806000020ADF80A0064
:1020300001A94FF08040FFF735FB01A8FFF7D0FB67
:102040006020ADF804000020ADF80C000120ADF8D0
:1020500006000020ADF80A0001A94FF08040FFF70C
:102060006DFB01218807FFF782FA01211020FEF79E
:1020700077FF10208DF8230003208DF822000F2019
:10208000ADF8200008A90348FEF734FC09B000BDF4
:10209000000801400010014010B586B0044601213F
:1020A0004804FEF74DFF01210420FEF759FF0420EC
:1020B000ADF8140003208DF8160018208DF81700D5
:1020C00005A91C48FEF716FC0820ADF814000420F2
:1020D0008DF8170005A91748FEF70CFC26208DF88F
:1020E000000003208DF801008DF8020001208DF81A
:1020F00003006846FEF7EAFE01940020ADF80800F0
:10210000ADF80A00ADF80C00ADF810000C20ADF8E9
:102110000E0001A90848FFF71FFD012240F22551DA
:102120000548FFF7F3FC01210348FFF7B9FC06B0AF
:1021300010BD0000000801400044004010B586B00A
:102140000446012144F20400FEF70AFF4FF4007038
:10215000ADF8140003208DF8160018208DF8170034
:1021600005A91D48FEF7C6FB4FF48060ADF81400CA
:1021700004208DF8170005A91748FEF7BBFB2520A2
:102180008DF8000003208DF801008DF80200012079
:102190008DF803006846FEF799FE01940020ADF823
:1021A0000800ADF80A00ADF80C00ADF810000C20E6
:1021B000ADF80E0001A90948FFF7CEFC012240F25C
:1021C00025510648FFF7A2FC01210448FFF768FCEF
:1021D000FEF7DCFA06B010BD0008014000380140EF
:1021E00021F00042A2F16052B2F5801F01F00043DD
:1021F00028BFD2F17F6C0BD95FEA001C43EAC20210
:1022000042EB507018BF704728BF20F001007047A4
:10221000B2F5801FBCBF184670474FEA410C1CF551
:10222000001F02D2084600F0AFBB70B500F00CFAF8
:1022300000000089FFF7F6BF4FF00040A0F58000D6
:10224000704700002DE9C04130B4DFF8A0C23CEA7D
:10225000111418BF3CEA131400F0EC8081EA030566
:102260001CEA111444EAD57418BF1CEA131500F0D7
:10227000C780A4EB05044FF0004545EAC12145EABB
:10228000C32341EA505143EA525304F17F74994207
:1022900004F500344FEAC0204FEAC22208BF904242
:1022A00000F09C804FEA13650FF24016765D4FEA0E
:1022B000134506FB05F7C7F1807706FB07F74FEAE2
:1022C000D737A7FB03687642C8F58038A7FB06CE50
:1022D00038BFA8F1010807FB08E64FF0000EA6FB87
:1022E000028CE6FB03CEDCF1000CCEF1004E38BFD1
:1022F000AEF1010EA6FB0C584FF000074FF00005A1
:10230000E6FB0E87A1FB08C6A0FB07CE16EB0E0668
:1023100045F10005E1FB076515F1E04E7EBFA4F530
:1023200080345FEA46066D4116F1800745F10005ED
:102330004FEA17274FEA066647EA0567A6F1DE4629
:10234000B6F1805F4FEA15251FD9384624F0010CFD
:1023500005EBC471BCF1FE6F01EB0C1102D8F0BCAF
:10236000BDE8008124425CBF01F5801E9EEAC47F67
:1023700002D4F0BCBDE80081244238D4F0BCA1F105
:10238000C041BDE8004100F0ADB94FEAD22242EAB7
:1023900043524FEAD323A7FB02864FEAD02040EAFC
:1023A000415007FB03661EEA0E0F4FEAD12105FBE1
:1023B000026658BFA6EB0056B6EB00564FEA520E27
:1023C0004EEAC37E18EB0E0E56EB530EBDD518EB3E
:1023D00002085E417F1C55F10005B6E74FF48015F9
:1023E0004FF000074FF000064FF00008ADE7F0BCDB
:1023F0004FF0000001F1C04101F00041BDE8008153
:1024000011EA0C1F0CEA131500D00CE013EA0C1FA4
:1024100000F025804FF00000F0BC81EA030101F0DC
:102420000041BDE80081F0BCBDE8004181EA030144
:1024300000F058B9F0BCBDE8004170B500F004F9F7
:10244000097EFC3E00F007B881EA03014FF000006E
:1024500001F00041704781EA030100F043B9F0BC8C
:10246000BDE800414FF0000021497047FFFDFBF936
:10247000F7F5F4F2F0EEEDEBE9E8E6E4E3E1E0DEB7
:10248000DDDBDAD8D7D5D4D3D1D0CFCDCCCBCAC829
:10249000C7C6C5C4C2C1C0BFBEBDBCBBBAB9B8B750
:1024A000B6B5B4B3B2B1B0AFAEADACABAAA9A8A843
:1024B000A7A6A5A4A3A3A2A1A09F9F9E9D9C9C9B11
:1024C0009A999998979796959594939392919190BC
:1024D0008F8F8E8E8D8C8C8B8B8A8989888887874D
:1024E0008685858484838382828181800000FF07C2
:1024F0000000F87FDFF848C170B51CEA111E1EBF4E
:102500001CEA13159EEA0C0F95EA0C0F00F06F8081
:1025100081EA030423EA4C134EEAD47E21EA4C11EB
:1025200041F4801143F48013AE44A1FB024CA0FBA4
:102530000365AEF17F7E361955EB0C05A1FB034C0C
:102540004CF10003A0FB021C16EB0C06654153F195
:102550000003094218BF46F0010613F4007F0BD1B7
:102560004FEA03314FEA0530340341EA155140EA9E
:1025700016506FF003020AE04FEAC3214FEAC5206C
:10258000F40241EA555140EA56506FF0020202EB64
:102590002E4201EB025585EACE710AD05FEA440C67
:1025A00018BF24F0004450F1000041F1000120EA7E
:1025B000D47040F2FE7C624500D270BDA84214BFC8
:1025C0004FF080444FF04044002E08BF0024BEF17D
:1025D000806FA8BFA1F1C041BDE8704080F2828049
:1025E0004FF0000001F1C04101F0004170479EEA48
:1025F0000C0F0CEA131518BF95EA0C0F06D04FF01C
:10260000000081EA030E0EF0004170BD00F01CF8DE
:102610008900013E00F007B800F009B84FEA430C0A
:102620005FEA5C5C08D081EA030100F05BB84FEA26
:10263000410C5FEA5C5CF6D14FF000000149704745
:102640000000FF070000F87F0EF1020E2EF0030ECF
:102650005EF8046B364205D4012A43EB030515F5F9
:10266000001F12D8012841EB010C1CF5001F0CD8EB
:102670000ED14FEAD17C15F5001F0CEB4C0C0CF180
:10268000020C08BF4CEBD37C04E04FF0080C01E0D7
:102690004FEAD37C0CEB4C0526FA05F606F007064C
:1026A000B6F1040C06D20EEB860CBDE870404CF07F
:1026B000010C6047DFE80CF0090B02024FF000410B
:1026C0004FF00000A1F5002170BD19461046012809
:1026D00051EB010418BFD4F5001484BF002001F0B1
:1026E000004170BD0808A0F500114FEA31017047A4
:1026F00043004FEAD30C4FEA3C0C43401FBF400756
:102700000CF1605113F0FE4F70471CF0006F03D1C5
:1027100000200CF0004170470CF0004343EA507079
:1027200010B540EACC0000F0E9F800BF00000092CC
:102730004FEA0001FFF7D6BF4FF000414FF0000015
:10274000A1F50021704700004FF47F0C1CEAD01265
:102750001EBF1CEAD11392EA0C0F93EA0C0F00F093
:10276000858090EA010F48BF42F4807240F4000C6B
:1027700041F400002CF07F4120F07F4000B5814201
:10278000A2EB03020FF2081CACEB504EC0F10000AC
:102790009EF800E04FEA4E0E00FB0EFC38BF4900E9
:1027A0004FEA2C1C02F5FA020CFB0EF34FEACE1E88
:1027B0004FEA112C4FEAC1210EEB635E42EB22423D
:1027C0000EFB0CFC4FEA1C5300FB03114FEA112CCB
:1027D0004FEA01310EFB0CFC4FEADC4C00FB0C1104
:1027E000C14228BF09184CEB03335DF804EB10EB32
:1027F000410143EBC250B2F57C0F38BF704729D579
:1028000012F0F00F1CBF00F1C04000F00040704714
:10281000008182838485868788898B8C8D8E8F91B9
:102820009293959697999A9C9D9FA0A2A3A5A7A8DD
:10283000AAACAEB0B2B3B5B7B9BCBEC0C2C5C7C909
:10284000CCCED1D4D7D9DCDFE2E6E9ECF0F3F7FA6D
:10285000FE0000004FEA400C0CF1807CBCF17E4F82
:1028600028BF7047B0F1C04000F08EB890EA010F69
:102870000CEAD11348BF42F48072624538BF634509
:1028800007D213F47F0F16D080EA010000F0004059
:10289000704710B500F032F8097EFC3E00F005B834
:1028A00080EA010000F00040704780EA010000F07B
:1028B000004000F069B812F47F0F04BF024870476F
:1028C00080EA010000F060B80000C07F10F0004115
:1028D00048BF4042B0FA80F310FA03F2C3F19D03FF
:1028E0000BD051EAC35101EB1220530638BF704799
:1028F00000F1010008BF20F0010070470EF1020E48
:102900002EF0030E5EF8044B244204D44FEA410239
:10291000B2F17F4F11D84FEA4003B3F17F4F0CD88B
:102920000ED14FEAD07CB2F17F4F0CEB4C0C0CF186
:10293000020C08BF4CEBD17C04E04FF0080C01E026
:102940004FEAD17C0CEB4C0324FA03F404F00704A7
:10295000B4F1040C06D20EEB840CBDE810404CF030
:10296000010C6047DFE80CF0070802024FF000405E
:10297000A0F5800010BD0846420018BFD2F1807259
:1029800088BF00F0004010BDFF2141EAD050C005D3
:102990007047040000080000000000000002000171
:1029A00000001000C42900080000002048000000BA
:1029B0006C0100080C2A00084800002038090000BB
:1029C0008801000800000000000000000000000076
:1029D00000A24A04000000000000000001020304FD
:1029E00006070809000000000102030401020304B5
:1029F00006070809020406080000000000000000A5
:0C2A0000000000000000000000000000CA
:0400000508000131BD
:00000001FF
