:020000040800F2
:1000000070090020CD010008E3060008DB060008A7
:10001000DF060008FD030008DB13000800000000F5
:10002000000000000000000000000000A10800081F
:10003000710400080000000055070008350A000898
:10004000E7010008E7010008E7010008E7010008F0
:10005000E7010008E7010008E7010008E7010008E0
:10006000E7010008E7010008E7010008E7010008D0
:10007000E7010008E7010008E7010008E7010008C0
:10008000E7010008E7010008E7010008E7010008B0
:10009000E7010008E7010008E7010008E7010008A0
:1000A000E7010008E7010008E7010008E701000890
:1000B000E7010008D90C0008F10C0008E70100086E
:1000C000E7010008E7010008E7010008E701000870
:1000D000E7010008B110000849110008D11100081B
:1000E000E7010008E7010008E7010008E701000850
:1000F000E7010008E7010008E7010008E701000840
:10010000E7010008E7010008E7010008E70100082F
:10011000E7010008E7010008E7010008E70100081F
:10012000E7010008E7010008E7010008E70100080F
:1001300000F002F800F03AF80AA090E8000C8244BF
:100140008344AAF10107DA4501D100F02FF8AFF29C
:10015000090EBAE80F0013F0010F18BFFB1A43F0A5
:1001600001031847801E0000A01E0000103A24BFA3
:1001700078C878C1FAD8520724BF30C830C144BF0C
:1001800004680C607047000000230024002500264E
:10019000103A28BF78C1FBD8520728BF30C148BFEA
:1001A0000B6070471FB51FBD10B510BD00F0F8F80B
:1001B0001146FFF7F7FF01F0C1F900F016F903B49B
:1001C000FFF7F2FF03BC01F00AF90000094880477D
:1001D00009480047FEE7FEE7FEE7FEE7FEE7FEE729
:1001E000FEE7FEE7FEE7FEE704480549054A064B41
:1001F00070470000390A0008310100087003002030
:100200007009002070050020700500207047032A47
:1002100040F2308010F0030C00F0158011F8013B23
:10022000BCF1020F624498BF11F801CB00F8013B0A
:1002300038BF11F8013BA2F1040298BF00F801CBCE
:1002400038BF00F8013B11F0030300F04B80083A7F
:10025000C0F0088051F8043B083A51F804CBA0E8FC
:100260000810F5E7121D5CBF51F8043B40F8043B51
:10027000AFF30080D20724BF11F8013B11F801CB86
:1002800048BF11F8012B24BF00F8013B00F801CB57
:1002900048BF00F8012B70474FF000020429C0F05E
:1002A000128010F0030C00F05180CCF1040CBCF172
:1002B000020F18BF00F8012BA8BF20F8022BA1EBFA
:1002C0000C0100F043B85FEAC17C24BF00F8012BA9
:1002D00000F8012B48BF00F8012B704770477047AA
:1002E0007047704710B5203AC0F00B80B1E8185045
:1002F000203AA0E81850B1E81850A0E81850BFF410
:10030000F5AF5FEA027C24BFB1E81850A0E81850AE
:1003100044BF18C918C0BDE810405FEA827C24BF02
:1003200051F8043B40F8043B08BF7047D20728BF90
:1003300031F8023B48BF11F8012B28BF20F8023BDF
:1003400048BF00F8012B70474FF0000200B513467C
:1003500094469646203922BFA0E80C50A0E80C50E5
:10036000B1F12001BFF4F7AF090728BFA0E80C5096
:1003700048BF0CC05DF804EB890028BF40F8042B8F
:1003800008BF704748BF20F8022B11F0804F18BFFC
:1003900000F8012B70470000004870471003002050
:1003A0007546FFF7F9FFAE4605006946534620F053
:1003B0000700854618B020B5FFF716FFBDE82040BE
:1003C0004FF000064FF000074FF000084FF0000B11
:1003D00021F00701AC46ACE8C009ACE8C009ACE8C4
:1003E000C009ACE8C0098D46704710B50446AFF3AC
:1003F00000802046BDE81040FFF7E1BE00BFFEE7E9
:1004000010B5C8210348FFF747FF002002490880C4
:1004100010BD0000B50000202E0000202DE9F05F87
:1004200004466178A1F1640001F03EFB074600221A
:100430000E4B01F0E1F9054601F0ACF98146A178D7
:10044000A1F1640001F030FB07460022074B01F0E8
:10045000D3F9054601F09EF9824694F803B051465F
:10046000484600F0E5FFBDE8F09F0000000059405D
:100470007047000000B587B00121042000F06CF93E
:100480000121082000F078F90121084600F074F9F4
:10049000C020ADF8000004208DF8030069461C4818
:1004A00000F08CF804A800F0F9FD0020ADF8100071
:1004B0004FF6FF70ADF814000020ADF81600ADF84F
:1004C000120004A9134800F097FD00231A460321E7
:1004D000104800F028FC01A800F09CFC0A20ADF8B0
:1004E0000C0001A90B4800F03FFC0121094800F075
:1004F0000BFC01221146074800F095FC002105483D
:1005000000F04CFD0121034800F001FC07B000BDE4
:10051000000C01400008004000B587B00121022016
:1005200000F01AF90121042000F026F90121084603
:1005300000F022F9C020ADF8000004208DF803007F
:1005400069461C4800F03AF804A800F0A7FD002016
:10055000ADF810004FF6FF70ADF814000020ADF8B4
:100560001600ADF8120004A9134800F045FD002361
:100570001A460321104800F0D6FB01A800F04AFCFF
:100580000A20ADF80C0001A90B4800F0EDFB012199
:10059000094800F0B9FB01221146074800F043FC6E
:1005A0000021054800F0FAFC0121034800F0AFFBF0
:1005B00007B000BD00080140000400402DE9F041F3
:1005C000024600250026002000230024002791F881
:1005D00003C00CF00F0591F803C00CF0100CBCF137
:1005E000000F03D091F802C04CEA050591F800C055
:1005F000BCF1000F31D0146800202BE04FF0010C4B
:100600000CFA00F3B1F800C00CEA03069E4220D1B8
:1006100083004FF00F0C0CFA03F7BC4305FA03FC00
:100620004CEA040491F803C0BCF1280F06D14FF046
:10063000010C0CFA00FCC2F814C00AE091F803C0E7
:10064000BCF1480F05D14FF0010C0CFA00FCC2F8C8
:1006500010C0401C0828D1D31460B1F800C0BCF110
:10066000FF0F34DD546800202EE000F1080C4FF03D
:10067000010808FA0CF3B1F800C00CEA03069E4228
:1006800021D183004FF00F0C0CFA03F7BC4305FA9D
:1006900003FC4CEA040491F803C0BCF1280F05D117
:1006A00000F1080C08FA0CF8C2F8148091F803C0A5
:1006B000BCF1480F07D100F1080C4FF0010808FA0F
:1006C0000CF8C2F81080401C0828CED35460BDE856
:1006D000F081416170470161704700BFFEE700BFD4
:1006E000FEE7704770B5002100230F22C47804B3E1
:1006F000154C246804F4E064C4F5E064210AC1F1F7
:100700000403CA40447804FA03F184781440214376
:1007100009010E4C0678A155047804F01F05012448
:10072000AC4005786D11AD0005F1E025C5F800413C
:1007300009E0047804F01F050124AC40044D06785C
:10074000761145F8264070BD0CED00E000E400E0B5
:1007500080E100E07047000029B1064AD2690243F7
:10076000044BDA6104E0034AD2698243014BDA6147
:10077000704700000010024029B1064A9269024306
:10078000044B9A6104E0034A92698243014B9A61E7
:10079000704700000010024030B500210022002404
:1007A00000232D4D6D6805F00C0121B1042905D001
:1007B000082923D105E0294D056022E0274D056079
:1007C0001FE0254D6D6805F47012234D6D6805F42A
:1007D0008034022505EB92421CB9214D554305603A
:1007E0000BE01D4D6D6805F400351DB11C4D5543E2
:1007F000056002E0194D5543056002E0174D0560A4
:1008000000BF00BF144D6D6805F0F0010909154DDA
:100810006B5C0568DD4045600F4D6D6805F4E06177
:10082000090A104D6B5C4568DD4085600A4D6D68B6
:1008300005F46051C90A0B4D6B5C4568DD40C5602D
:10084000054D6D6805F44041890B074D6B5CC5682B
:10085000B5FBF3F5056130BD0010024000127A00CF
:1008600000093D00140000202400002010B50A48B3
:1008700000880121B1EBD03F0DD108480078FE2857
:1008800002D10648FFF7CAFDC8210448FFF704FD5E
:1008900000200149088010BD380000207D010020A3
:1008A000704710B500F002F810BD00000CB5002034
:1008B000019000903348006840F48030314908606E
:1008C00000BF3048006800F4003000900198401CE0
:1008D0000190009818B90198B0F5A06FF1D129489E
:1008E000006800F4003010B10120009001E0002009
:1008F00000900098012843D12348006840F0100080
:10090000214908600846006820F003000860084696
:10091000006840F0020008601A48406819494860C1
:100920000846406848600846406840F48060486077
:100930000846406820F47C1048600846406840F44F
:10094000E81048600846006840F08070086000BF0A
:100950000C48006800F000700028F9D00948406891
:1009600020F00300074948600846406840F0020054
:10097000486000BF0348406800F00C000828F9D127
:100980000CBD0000001002400020024010B50446DB
:100990003CB901210848FFF79CFE02210648FFF7F9
:1009A0009AFE012C07D101210348FFF794FE022192
:1009B0000148FFF78EFE10BD0010014010B504463F
:1009C000A1B24FF0804000F0E5FA10BD10B504462A
:1009D0003CB904210848FFF77CFE08210648FFF7D0
:1009E0007AFE012C07D104210348FFF774FE082189
:1009F0000148FFF76EFE10BD0010014010B504461F
:100A0000A1B24FF0804000F0C7FA10BD042808D111
:100A10004FF0E021096941F004014FF0E02211613B
:100A200007E04FF0E021096921F004014FF0E022D6
:100A3000116170477047000010B51348006840F01E
:100A400001001149086008464068104908400E49F5
:100A50004860084600680E4908400B49086008468F
:100A6000006820F4802008600846406820F4FE00FA
:100A700048604FF41F008860FFF713FF4FF00060DD
:100A80000449086010BD0000001002400000FFF89B
:100A9000FFFFF6FE08ED00E0F0B50C46154600221B
:100AA0000021068C4FF6FE773E400684028B018CB7
:100AB0004FF60C7632407E1C06EA03162E43324374
:100AC000104EB0420ED0104EB0420BD0B0F1804F5D
:100AD00008D00E4EB04205D00D4EB04202D00D4EA1
:100AE000B04206D14FF6FD76314044F00106314365
:100AF00005E04FF6F576314044F0010631430283BC
:100B00000184F0BD002C014000340140000400408D
:100B100000080040000C0040F0B50C4615460022CD
:100B200000210026078C4FF6EF7C07EA0C070784AC
:100B3000028B018C4FF6FF7707EA041640F6FF4759
:100B40003A404FF6FF7707EA03373A434FF6FF770D
:100B500007EA05273A43114FB8420ED0104FB8426A
:100B60000BD0B0F1804F08D00E4FB84205D00E4FD9
:100B7000B84202D00D4FB84206D14FF6DF77394068
:100B800046F01007394305E04FF65F77394044F0EF
:100B90001007394302830184F0BD0000002C01409E
:100BA000003401400004004000080040000C0040F8
:100BB000F0B50C461546002200210026078C4FF6A2
:100BC000FF6C07EA0C070784828B018C4FF6FF77D6
:100BD00007EA04264FF60C773A404FF6FF7707EA0C
:100BE00003172F433A43114FB8420ED0104FB8426B
:100BF0000BD0B0F1804F08D00E4FB84205D00E4F49
:100C0000B84202D00D4FB84206D14FF6FF573940D7
:100C100046F48077394305E04FF2FF57394044F4FA
:100C20008077394382830184F0BD0000002C0140AD
:100C3000003401400004004000080040000C004067
:100C4000F0B50C461546002200210026078C4EF612
:100C5000FF7C07EA0C070784828B018C4FF6FF7735
:100C600007EA043640F6FF473A404FF6FF7707EAB7
:100C700005273A434FF6FF7707EA03373A43114F08
:100C8000B8420ED0104FB8420BD0B0F1804F08D010
:100C90000E4FB84205D00E4FB84202D00D4FB842A9
:100CA00006D14DF6FF77394046F48057394305E0C9
:100CB00047F6FF57394044F4805739438283018413
:100CC000F0BD0000002C0140003401400004004051
:100CD00000080040000C00400448008803480088D9
:100CE00020F0010001490880704700001004004016
:100CF000044800880348008820F00100014908806A
:100D00007047000010080040CA430282704721B1BA
:100D1000028842F00102028004E002884FF6FE736E
:100D20001A4002807047F0B50C4615461E46002159
:100D3000002200230189028B038C4FF6F87739409B
:100D400021434FF6FC473A4040F201173A434FF631
:100D5000DD773B404FF6FF7707EA06172F433B430B
:100D6000018102830384F0BD70B505460C4624481A
:100D700085420ED0234885420BD0B5F1804F08D074
:100D80002148854205D02148854202D0204885422D
:100D900000D100E000BF208850B92389A288618873
:100DA0002846FFF779FEE188284600F0F9F825E0AB
:100DB000208804280AD12389A28861882846FFF761
:100DC000ABFEE188284600F0F4F817E020880828F8
:100DD0000AD12389A28861882846FFF7E9FEE188C5
:100DE000284600F0F3F809E02389A28861882846A4
:100DF000FFF726FFE188284600F0F1F870BD0000FB
:100E0000002C014000340140000400400008004074
:100E1000000C0040002101804180012181800021DF
:100E2000C180018170471AB183890B43838102E03D
:100E300083898B438381704701894FF6F872114093
:100E40000181704770B5002400220023058C4FF605
:100E5000FE7635400584028C8388048B4FF68F75AF
:100E60002C40B51E2C400D882C43751E2A400D8940
:100E70002A434D882A43144DA8420BD0134DA84253
:100E800008D0134DA84205D0124DA84202D0124DF1
:100E9000A84213D14FF6F7752A404D892A434FF6E1
:100EA000FB752A408D882A434FF6FF652B404FF68D
:100EB000FF552B408D892B43CD892B4383800483A1
:100EC000CD888586028470BD002C0140003401402D
:100ED00000400140004401400048014070B500243A
:100EE00000220023058C4FF6EF7635400584028CF6
:100EF0008388048B48F6FF752C404FF6FF452C4045
:100F00000D884FF6FF7606EA05252C434FF6DF7570
:100F10002A400D8906EA05152A434D8806EA05157B
:100F20002A43154DA84202D0144DA8421DD14FF6B8
:100F30007F752A404D894FF6FF7606EA05152A434C
:100F40004FF6BF752A408D8806EA05152A434FF6ED
:100F5000FF352B404FF2FF752B408D8906EA850542
:100F60002B43CD8906EA85052B4383800483CD88F6
:100F70000587028470BD0000002C01400034014050
:100F80000021018041808180C18001814181818176
:100F9000C18170478186704701877047818470479F
:100FA000028B4FF6F3731A400283028B0A430283CB
:100FB0007047028B4FF2FF331A400283028B4FF6C9
:100FC000FF7303EA01231A4302837047828B4FF6B3
:100FD000F3731A408283828B0A4382837047828B29
:100FE0004FF2FF331A408283828B4FF6FF7303EA7E
:100FF00001231A4382837047002202881D4B9842C6
:101000000ED01D4B98420BD0B0F1804F08D01B4B37
:10101000984205D01A4B984202D01A4B984204D1FC
:101020004FF68F731A404B881A43174B984207D0DC
:10103000164B984204D04FF6FF431A40CB881A4310
:1010400002808B8883850B8803850A4B98420BD0DE
:10105000094B984208D00E4B984205D00D4B984250
:1010600002D00D4B984201D10B7A03860123838273
:1010700070470000002C0140003401400004004093
:1010800000080040000C0040001000400014004028
:101090000040014000440140004801404FF6FF710C
:1010A000818000210180C180418001727047000071
:1010B00010B540F22551204800F0CEF8002839D074
:1010C0001D4800F085F9C4B2242C02D100201B4930
:1010D00008801A4801880088401C184A1080184867
:1010E0004454007824281ED1154800794D281AD17F
:1010F00013484079432816D10A2C14D150211148A5
:10110000FFF7CAF80D4802880D490E48FFF77FF82F
:1011100001200C4981F85000002008490880C821AE
:101120000748FFF7B9F805480088C82802DBC8203F
:101130000249088010BD0000003801402E00002048
:10114000B50000203C00002010B540F225511D489C
:1011500000F082F810B31B4800F03AF9C4B21A4804
:10116000008800F40040C8B91748008800F48040A7
:1011700060B10A2C03D000201349088020E01248F7
:10118000008840F400401049088019E00D2C06D179
:101190000D48008840F480400B49088010E00A4860
:1011A0000088C0F30D0009490C5407480088401C12
:1011B0000549088008460088C72801DD002008800E
:1011C00010BD000000440040380000207D010020D8
:1011D00010B540F22551164800F03EF8F8B1144819
:1011E00000F0F6F8C4B21348008800F40040B0B92B
:1011F00010480088C82813DA00210F48FFF7CEFEF8
:101200000C48008818B901210B48FFF780FD0948F8
:1012100001880088401C074A10800848445405E0B3
:101220000448008840F400400249088010BD0000D6
:10123000004800403A000020000400404502002021
:1012400021B1828942F40052828104E082894DF604
:10125000FF731A408281704770B502460024002354
:101260000025002040F66A16B14200D100BFC1F34C
:10127000421501F01F03012606FA03F3012D02D1E6
:101280009689334006E0022D02D1168A334001E0F0
:10129000968A33400C12012606FA04F4168834406C
:1012A00013B10CB1012000E0002070BDF0B5034681
:1012B000002400260025002040F66A17B94200D11C
:1012C00000BF1846C1F3421401F01F06012707FAB8
:1012D00006F5012C01D10C3004E0022C01D11030B4
:1012E00000E014301AB107682F43076002E0076876
:1012F000AF430760F0BD00002DE9F04786B005461A
:101300000E460024A24600BFA1460027B08900B1C6
:1013100000BF2F462C8A4CF6FF700440F08804432F
:101320002C82AC894EF6F3100440B0883189084312
:10133000718908430443AC81AC8A4FF6FF400440F6
:10134000B0890443AC8201A8FFF726FA1F48874200
:1013500002D1DDF810A001E0DDF80CA0A88900F4AE
:10136000004040B10AEBCA0000EB0A1031684900A6
:10137000B0FBF1F807E00AEBCA0000EB0A10316895
:101380008900B0FBF1F86420B8FBF0F004012009FB
:10139000642101FB1089A88900F4004040B132208B
:1013A00000EBC900B0FBF1F000F00700044308E0D7
:1013B000322000EB09106421B0FBF1F000F00F00C7
:1013C00004432C8106B0BDE8F087000000380140DE
:1013D00001468888C0F30800704700BFFEE7014659
:1013E00000BF704710B50020104981F8500081F807
:1013F000510081F8780050210C48FEF74DFF0B4852
:101400005230002101604160018181720B30016026
:101410004160018181725D38A0F868106A30016016
:10142000416081606A38A0F8761010BD3C00002051
:101430002DE9F04704460D462946204600F0A0FB62
:1014400080462946204600F057FD0746274900F010
:1014500055FC06460021404600F01CFD0DD800203A
:10146000FFF794FA2249404600F048FC814600F01C
:10147000F5FB0746FFF7A2FA11E00021404600F015
:1014800009FC0CD20120FFF781FA1A49404600F00E
:1014900035FC814600F0E2FB0746FFF78FFA00219A
:1014A000304600F0F7FC0DD80020FFF78FFA104906
:1014B000304600F023FC814600F0D0FB0746FFF7E2
:1014C0009DFA11E00021304600F0E4FB0CD201202F
:1014D000FFF77CFA0749304600F010FC814600F027
:1014E000BDFB0746FFF78AFABDE8F087000080BF22
:1014F00000007A4400007AC410B56FF00400FFF7D2
:1015000085FA0A4800680A49B0FBF1F009490870F9
:101510000846007800EB4001C1EBC0104FF6FF71A8
:1015200001EAC0000449088010BD0000000000204E
:1015300000127A00280000202A000020FFF7DCFFBC
:101540004FF4165000F0D4F84FF4165000F07EF827
:1015500000F00AF8FEF78EFFFEF7DEFFFFF742FF0E
:1015600001E0FFF783F9FCE700B589B001210846E7
:10157000FFF7F2F801210420FFF7FEF818208DF89C
:10158000230003208DF82200ADF8200008A92D4883
:10159000FFF714F84FF08040FFF74EFC0020ADF845
:1015A0001A00ADF8160040F2E730ADF8180040F22E
:1015B0009F50ADF8140000208DF81C0005A94FF0D5
:1015C0008040FFF719FD01A8FFF7DAFC6020ADF8B5
:1015D00004000020ADF80C000120ADF8060000204A
:1015E000ADF80A0001A94FF08040FFF72BFC01A8DD
:1015F000FFF7C6FC6020ADF804000020ADF80C0039
:101600000120ADF806000020ADF80A0001A94FF056
:101610008040FFF763FC01218807FFF778FB012179
:101620001020FFF7A9F810208DF8230003208DF873
:1016300022000F20ADF8200008A90348FEF7BEFFE6
:1016400009B000BD000801400010014010B586B08F
:10165000044601214804FFF77FF801210420FFF729
:101660008BF80420ADF8140003208DF81600182024
:101670008DF8170005A91C48FEF7A0FF0820ADF85B
:10168000140004208DF8170005A91748FEF796FFEF
:1016900026208DF8000003208DF801008DF802004F
:1016A00001208DF803006846FFF71CF80194002024
:1016B000ADF80800ADF80A00ADF80C00ADF8100068
:1016C0000C20ADF80E0001A90848FFF715FE012215
:1016D00040F225510548FFF7E9FD01210348FFF7D6
:1016E000AFFD06B010BD00000008014000440040FE
:1016F00010B586B00446012144F20400FFF73CF81F
:101700004FF40070ADF8140003208DF81600182077
:101710008DF8170005A91D48FEF750FF4FF48060B3
:10172000ADF8140004208DF8170005A91748FEF73E
:1017300045FF25208DF8000003208DF801008DF86D
:10174000020001208DF803006846FEF7CBFF0194EC
:101750000020ADF80800ADF80A00ADF80C00ADF8B7
:1017600010000C20ADF80E0001A90948FFF7C4FDD8
:10177000012240F225510648FFF798FD0121044857
:10178000FFF75EFDFEF73CFE06B010BD000801400D
:101790000038014021F00042A2F16052B2F5801FF2
:1017A00001F0004328BFD2F17F6C0BD95FEA001C27
:1017B00043EAC20242EB507018BF704728BF20F0C6
:1017C00001007047B2F5801FBCBF184670474FEA52
:1017D000410C1CF5001F02D2084600F056BB70B544
:1017E00000F079F900000089FFF7F6BF4FF00040E4
:1017F000A0F58000704700002DE9C04130B4DFF84B
:10180000A0C23CEA111418BF3CEA131400F0EC80AB
:1018100081EA03051CEA111444EAD57418BF1CEAD6
:10182000131500F0C780A4EB05044FF0004545EA0E
:10183000C12145EAC32341EA505143EA525304F11E
:101840007F74994204F500344FEAC0204FEAC22267
:1018500008BF904200F09C804FEA13650FF24016DB
:10186000765D4FEA134506FB05F7C7F1807706FB67
:1018700007F74FEAD737A7FB03687642C8F58038E9
:10188000A7FB06CE38BFA8F1010807FB08E64FF01A
:10189000000EA6FB028CE6FB03CEDCF1000CCEF1C1
:1018A000004E38BFAEF1010EA6FB0C584FF00007FA
:1018B0004FF00005E6FB0E87A1FB08C6A0FB07CE94
:1018C00016EB0E0645F10005E1FB076515F1E04E4C
:1018D0007EBFA4F580345FEA46066D4116F18007AD
:1018E00045F100054FEA17274FEA066647EA056704
:1018F000A6F1DE46B6F1805F4FEA15251FD93846BE
:1019000024F0010C05EBC471BCF1FE6F01EB0C116E
:1019100002D8F0BCBDE8008124425CBF01F5801E06
:101920009EEAC47F02D4F0BCBDE80081244238D4D2
:10193000F0BCA1F1C041BDE8004100F01AB94FEA86
:10194000D22242EA43524FEAD323A7FB02864FEA50
:10195000D02040EA415007FB03661EEA0E0F4FEA13
:10196000D12105FB026658BFA6EB0056B6EB005628
:101970004FEA520E4EEAC37E18EB0E0E56EB530E94
:10198000BDD518EB02085E417F1C55F10005B6E796
:101990004FF480154FF000074FF000064FF000089D
:1019A000ADE7F0BC4FF0000001F1C04101F0004193
:1019B000BDE8008111EA0C1F0CEA131500D00CE001
:1019C00013EA0C1F00F025804FF00000F0BC81EA04
:1019D000030101F00041BDE80081F0BCBDE8004119
:1019E00081EA030100F0C5B8F0BCBDE8004170B564
:1019F00000F071F8097EFC3E00F007B881EA0301AF
:101A00004FF0000001F00041704781EA030100F04F
:101A1000B0B8F0BCBDE800414FF00000214970476C
:101A2000FFFDFBF9F7F5F4F2F0EEEDEBE9E8E6E4A3
:101A3000E3E1E0DEDDDBDAD8D7D5D4D3D1D0CFCD2A
:101A4000CCCBCAC8C7C6C5C4C2C1C0BFBEBDBCBB63
:101A5000BAB9B8B7B6B5B4B3B2B1B0AFAEADACAB5E
:101A6000AAA9A8A8A7A6A5A4A3A3A2A1A09F9F9E38
:101A70009D9C9C9B9A9999989797969595949393EA
:101A8000929191908F8F8E8E8D8C8C8B8B8A898981
:101A90008888878786858584848383828281818004
:101AA0000000FF070000F87F10F0004248BF4042EE
:101AB000B0FA80F310FA03F10AD0C3F11D0303F565
:101AC00080634FEA415002EB035202EBD121704791
:101AD0004FF0000070470EF1020E2EF0030E5EF87C
:101AE000046B364205D4012A43EB030515F5001FAC
:101AF00012D8012841EB010C1CF5001F0CD80ED1A7
:101B00004FEAD17C15F5001F0CEB4C0C0CF1020CCC
:101B100008BF4CEBD37C04E04FF0080C01E04FEA27
:101B2000D37C0CEB4C0526FA05F606F00706B6F159
:101B3000040C06D20EEB860CBDE870404CF0010C94
:101B40006047DFE80CF0090B02024FF000414FF054
:101B50000000A1F5002170BD19461046012851EB87
:101B6000010418BFD4F5001484BF002001F0004127
:101B700070BD0808A0F500114FEA31017047000060
:101B800090EA010F48BF81F0004100F1BC81421A88
:101B90003CBF801A89184FEAD0524FF07F4C1CEAA4
:101BA000410FA2EBD15318BF9CEA026F00F03B80BB
:101BB0004FF0004C4CEA00204CEA012121FA03FCD2
:101BC00010EB0C0C1ED202F1FF325FEA1C2040EB3E
:101BD000C25038BF70471CF07F0F4FEA400C18BF4F
:101BE000BCF17F4F38BF7047C3F12003994008BF55
:101BF00020F00100BCF17F4F38BF7047A0F1C0401A
:101C000000F043B94FEA3C00000A40EBC25028BF45
:101C10001CF0FF0F4FEA400CE6D018BFBCF17F4F1D
:101C200038BF7047EAE79CEA026F05D010EA5C0F04
:101C300008BF00F00040704710B500F0E0F800BFAA
:101C400064FBBE3E401058BFC0F14040491058BF31
:101C5000C1F140418142EFF30080704741000B0E1B
:101C6000D3F19E0208D950F400034FEA032323FA6C
:101C700002F048BF4042704710B500F0C0F800BF06
:101C800049922480002070476FF0004282EA2000D1
:101C90007047000050EA010C00F113801CF5000FA2
:101CA00058BFBCF5000F01D48842704707D710F524
:101CB000000F58BF11F5000F15D4884270478942B4
:101CC00070471CF5000F04D5BCF5000FF7D5814215
:101CD00070474FF0807C1CEB400F38BF1CEB410F6E
:101CE00001D28142704710B500F089F89224490072
:101CF0004FF000504FF08051FFF7A4BF4FF47F0C1E
:101D00001CEAD0121EBF1CEAD11392EA0C0F93EA10
:101D10000C0F00F0478090EA010F48BF42F4807238
:101D20004FF0004C4CEA00204CEA012102EB030288
:101D3000A0FB0113A2F50002002918BF43F0010324
:101D40005B0028BF4FEA330342EB22425FEA132CC9
:101D50004CEBC2502EBFBCEB436FB2F57C0F70470B
:101D60004FEA036CBCF1004F08BF20F00100B2F550
:101D70007C0F38BF70470BD582F0FF0212F5803F11
:101D8000C8BF704700F1C040D8BF00F000407047A6
:101D900000F5000C5FEA4C0C48BF7047B0F1C04042
:101DA00000F073B890EA010F0CEAD11348BF42F477
:101DB0008072624538BF634504D280EA010000F0BA
:101DC0000040704710B500F01AF800BF8900013ECE
:101DD00000F007B800F009B85FEA410C5FEA1C6C3C
:101DE00008D080EA010000F050B85FEA400C5FEADA
:101DF0001C6CF6D14FF00040A0F5800070470EF14A
:101E0000020E2EF0030E5EF8044B244204D44FEA77
:101E10004102B2F17F4F11D84FEA4003B3F17F4F37
:101E20000CD80ED14FEAD07CB2F17F4F0CEB4C0CAA
:101E30000CF1020C08BF4CEBD17C04E04FF0080C15
:101E400001E04FEAD17C0CEB4C0324FA03F404F0DC
:101E50000704B4F1040C06D20EEB840CBDE810406C
:101E60004CF0010C6047DFE80CF0070802024FF06D
:101E70000040A0F5800010BD0846420018BFD2F116
:101E8000807288BF00F0004010BDFF2141EAD050B1
:101E9000C005704751EA000C00F113801CF5000FDB
:101EA00058BFBCF5000F01D48142704707D711F528
:101EB000000F58BF10F5000F15D4814270478942BA
:101EC00070471CF5000F04D5BCF5000FF7D588420C
:101ED00070474FF0807C1CEB410F38BF1CEB400F6C
:101EE00001D28842704780EA010081EA000180EA5D
:101EF0000100FFF7F8BE000090EA010F48BF81F033
:101F000000413FF544AE421A04D882F00042A0EBF3
:101F1000020011444FEAD0524FF07F4C1CEA410FAF
:101F2000A2EBD15318BF9CEA026F4AD04FF0004C8D
:101F30004CEA00204CEA012121FA03FCB0EB0C0C26
:101F40000FD412F0FE0F36D05FEA4C001DD5001200
:101F500040EBC25038BF70471CF03F0F18BF7047AE
:101F60000BE0A2F101025FEA1C2040EBC25038BF37
:101F700070471CF07F0F18BF7047C3F120039940D2
:101F800014BF401E20F00100704780084FEA122362
:101F900008BF7047B0FA80FCA2EB0C02CCF1280C11
:101FA00060FA0CF093EA122F04BF00EBC2507047A6
:101FB0004FEAC3707047130A5FEADC1008BF70472E
:101FC000F6E79CEA026F04D010EA5C0F08BF00201D
:101FD000704710B5FFF713FF40DFF63E81F0004079
:101FE0007047000004200008000000203C000000B2
:101FF0006C010008402000083C000020340900006B
:102000008801000800A24A0400000000000000004F
:10201000010203040607080900000000010203048E
:102020000102030406070809020406080000000074
:1020300000000000000000000000000000000000A0
:0400000508000131BD
:00000001FF
